{
  "address": "0xd812eede3aee33db80bad446e085ef6e9d2f02c6",
  "abi": [
    {
      "anonymous": false,
      "inputs": [
        {
          "indexed": false,
          "internalType": "uint8",
          "name": "version",
          "type": "uint8"
        }
      ],
      "name": "Initialized",
      "type": "event"
    },
    {
      "anonymous": false,
      "inputs": [
        {
          "indexed": true,
          "internalType": "address",
          "name": "previousOwner",
          "type": "address"
        },
        {
          "indexed": true,
          "internalType": "address",
          "name": "newOwner",
          "type": "address"
        }
      ],
      "name": "OwnershipTransferred",
      "type": "event"
    },
    {
      "anonymous": false,
      "inputs": [
        {
          "indexed": true,
          "internalType": "address",
          "name": "topicOwner",
          "type": "address"
        },
        {
          "indexed": true,
          "internalType": "bytes32",
          "name": "topicId",
          "type": "bytes32"
        },
        {
          "indexed": true,
          "internalType": "uint256",
          "name": "tokenId",
          "type": "uint256"
        },
        {
          "indexed": false,
          "internalType": "address",
          "name": "tokenOwner",
          "type": "address"
        },
        {
          "indexed": false,
          "internalType": "bytes32",
          "name": "profileArId",
          "type": "bytes32"
        },
        {
          "indexed": false,
          "internalType": "bytes32",
          "name": "topicsArId",
          "type": "bytes32"
        }
      ],
      "name": "TimeTokenMinted",
      "type": "event"
    },
    {
      "anonymous": false,
      "inputs": [
        {
          "indexed": true,
          "internalType": "address",
          "name": "topicOwner",
          "type": "address"
        }
      ],
      "name": "TimeTroveCreated",
      "type": "event"
    },
    {
      "inputs": [],
      "name": "baseURI",
      "outputs": [
        {
          "internalType": "string",
          "name": "",
          "type": "string"
        }
      ],
      "stateMutability": "view",
      "type": "function"
    },
    {
      "inputs": [
        {
          "components": [
            {
              "internalType": "bytes32",
              "name": "arOwnerAddress",
              "type": "bytes32"
            },
            {
              "internalType": "address",
              "name": "topicOwner",
              "type": "address"
            },
            {
              "internalType": "bytes",
              "name": "signature",
              "type": "bytes"
            }
          ],
          "internalType": "struct MuseTimeController.CreateTimeTroveParams[]",
          "name": "params",
          "type": "tuple[]"
        }
      ],
      "name": "createTimeTroves",
      "outputs": [],
      "stateMutability": "nonpayable",
      "type": "function"
    },
    {
      "inputs": [
        {
          "internalType": "address",
          "name": "museTimeNFT_",
          "type": "address"
        },
        {
          "internalType": "string",
          "name": "baseURI_",
          "type": "string"
        },
        {
          "internalType": "address",
          "name": "paramsSigner_",
          "type": "address"
        }
      ],
      "name": "initialize",
      "outputs": [],
      "stateMutability": "nonpayable",
      "type": "function"
    },
    {
      "inputs": [],
      "name": "mintIndex",
      "outputs": [
        {
          "internalType": "uint256",
          "name": "",
          "type": "uint256"
        }
      ],
      "stateMutability": "view",
      "type": "function"
    },
    {
      "inputs": [
        {
          "internalType": "uint256",
          "name": "expired",
          "type": "uint256"
        },
        {
          "internalType": "uint256",
          "name": "valueInWei",
          "type": "uint256"
        },
        {
          "internalType": "bytes32",
          "name": "profileArId",
          "type": "bytes32"
        },
        {
          "internalType": "bytes32",
          "name": "topicsArId",
          "type": "bytes32"
        },
        {
          "internalType": "bytes32",
          "name": "topicId",
          "type": "bytes32"
        },
        {
          "internalType": "address",
          "name": "topicOwner",
          "type": "address"
        },
        {
          "internalType": "bytes",
          "name": "signature",
          "type": "bytes"
        }
      ],
      "name": "mintTimeToken",
      "outputs": [],
      "stateMutability": "payable",
      "type": "function"
    },
    {
      "inputs": [],
      "name": "museTimeNFT",
      "outputs": [
        {
          "internalType": "address",
          "name": "",
          "type": "address"
        }
      ],
      "stateMutability": "view",
      "type": "function"
    },
    {
      "inputs": [],
      "name": "owner",
      "outputs": [
        {
          "internalType": "address",
          "name": "",
          "type": "address"
        }
      ],
      "stateMutability": "view",
      "type": "function"
    },
    {
      "inputs": [],
      "name": "paramsSigner",
      "outputs": [
        {
          "internalType": "address",
          "name": "",
          "type": "address"
        }
      ],
      "stateMutability": "view",
      "type": "function"
    },
    {
      "inputs": [],
      "name": "renounceOwnership",
      "outputs": [],
      "stateMutability": "nonpayable",
      "type": "function"
    },
    {
      "inputs": [
        {
          "internalType": "string",
          "name": "baseURI_",
          "type": "string"
        }
      ],
      "name": "setBaseURI",
      "outputs": [],
      "stateMutability": "nonpayable",
      "type": "function"
    },
    {
      "inputs": [
        {
          "internalType": "uint256",
          "name": "tokenId",
          "type": "uint256"
        }
      ],
      "name": "setConfirmed",
      "outputs": [],
      "stateMutability": "nonpayable",
      "type": "function"
    },
    {
      "inputs": [
        {
          "internalType": "uint256",
          "name": "tokenId",
          "type": "uint256"
        }
      ],
      "name": "setFulfilled",
      "outputs": [],
      "stateMutability": "nonpayable",
      "type": "function"
    },
    {
      "inputs": [
        {
          "internalType": "address",
          "name": "paramsSigner_",
          "type": "address"
        }
      ],
      "name": "setParamsSigner",
      "outputs": [],
      "stateMutability": "nonpayable",
      "type": "function"
    },
    {
      "inputs": [
        {
          "internalType": "uint256",
          "name": "tokenId",
          "type": "uint256"
        }
      ],
      "name": "setRejected",
      "outputs": [],
      "stateMutability": "nonpayable",
      "type": "function"
    },
    {
      "inputs": [
        {
          "internalType": "uint256",
          "name": "tokenId",
          "type": "uint256"
        }
      ],
      "name": "timeTokenOf",
      "outputs": [
        {
          "components": [
            {
              "internalType": "uint256",
              "name": "valueInWei",
              "type": "uint256"
            },
            {
              "internalType": "address",
              "name": "topicOwner",
              "type": "address"
            },
            {
              "internalType": "enum MuseTimeController.TimeTokenStatus",
              "name": "status",
              "type": "uint8"
            }
          ],
          "internalType": "struct MuseTimeController.TimeToken",
          "name": "",
          "type": "tuple"
        }
      ],
      "stateMutability": "view",
      "type": "function"
    },
    {
      "inputs": [
        {
          "internalType": "address",
          "name": "topicOwner",
          "type": "address"
        }
      ],
      "name": "timeTroveOf",
      "outputs": [
        {
          "components": [
            {
              "internalType": "bytes32",
              "name": "arOwnerAddress",
              "type": "bytes32"
            },
            {
              "internalType": "uint256",
              "name": "balance",
              "type": "uint256"
            }
          ],
          "internalType": "struct MuseTimeController.TimeTrove",
          "name": "",
          "type": "tuple"
        }
      ],
      "stateMutability": "view",
      "type": "function"
    },
    {
      "inputs": [
        {
          "internalType": "uint256",
          "name": "tokenId",
          "type": "uint256"
        }
      ],
      "name": "tokenURI",
      "outputs": [
        {
          "internalType": "string",
          "name": "",
          "type": "string"
        }
      ],
      "stateMutability": "view",
      "type": "function"
    },
    {
      "inputs": [
        {
          "internalType": "address",
          "name": "newOwner",
          "type": "address"
        }
      ],
      "name": "transferOwnership",
      "outputs": [],
      "stateMutability": "nonpayable",
      "type": "function"
    },
    {
      "inputs": [
        {
          "internalType": "contract IERC20",
          "name": "token",
          "type": "address"
        }
      ],
      "name": "withdrawERC20",
      "outputs": [],
      "stateMutability": "nonpayable",
      "type": "function"
    },
    {
      "inputs": [],
      "name": "withdrawETH",
      "outputs": [],
      "stateMutability": "nonpayable",
      "type": "function"
    },
    {
      "inputs": [],
      "name": "withdrawFromTimeTrove",
      "outputs": [],
      "stateMutability": "nonpayable",
      "type": "function"
    },
    {
      "stateMutability": "payable",
      "type": "receive"
    }
  ],
  "transactionHash": "0x212d9d64c30e6623280db2b4ce91b1e8704dfadf1460184a4788c1f58d3f3b48",
  "args": [],
  "numDeployments": 2,
  "solcInputHash": "ea75dff4acf2a98f633f6e9f2afb332b",
  "bytecode": "0x608060405234801561001057600080fd5b50612019806100206000396000f3fe60806040526004361061012e5760003560e01c806372ef3205116100ab578063c87b56dd1161006f578063c87b56dd1461038d578063e086e5ec146103ad578063e7a5b80b146103c2578063f2fde38b146103d5578063f4f3b200146103f5578063f74f9bfd1461041557600080fd5b806372ef3205146102855780637bb7c0d8146102a55780638da5cb5b146102c5578063afe290a1146102e3578063b5dc297e1461036057600080fd5b806355f804b3116100f257806355f804b3146101ee57806360c18bc11461020e5780636c0360eb1461022e5780636e44771014610250578063715018a61461027057600080fd5b806302f71cf81461013a57806308678bb61461015c5780630cbee0d314610199578063145e5f62146101b9578063424a4fa1146101d957600080fd5b3661013557005b600080fd5b34801561014657600080fd5b5061015a6101553660046118d9565b610439565b005b34801561016857600080fd5b5060665461017c906001600160a01b031681565b6040516001600160a01b0390911681526020015b60405180910390f35b3480156101a557600080fd5b5060655461017c906001600160a01b031681565b3480156101c557600080fd5b5061015a6101d43660046119e7565b610606565b3480156101e557600080fd5b5061015a6107a8565b3480156101fa57600080fd5b5061015a610209366004611afb565b610833565b34801561021a57600080fd5b5061015a6102293660046118d9565b610847565b34801561023a57600080fd5b506102436109d1565b6040516101909190611b5c565b34801561025c57600080fd5b5061015a61026b3660046118d9565b610a5f565b34801561027c57600080fd5b5061015a610c17565b34801561029157600080fd5b5061015a6102a0366004611b8f565b610c2b565b3480156102b157600080fd5b5061015a6102c0366004611bb3565b610c55565b3480156102d157600080fd5b506033546001600160a01b031661017c565b3480156102ef57600080fd5b506103456102fe366004611b8f565b6040805180820190915260008082526020820152506001600160a01b03166000908152606b6020908152604091829020825180840190935280548352600101549082015290565b60408051825181526020928301519281019290925201610190565b34801561036c57600080fd5b5061038061037b3660046118d9565b610dab565b6040516101909190611c2d565b34801561039957600080fd5b506102436103a83660046118d9565b610e3c565b3480156103b957600080fd5b5061015a610f27565b61015a6103d0366004611c79565b610f5e565b3480156103e157600080fd5b5061015a6103f0366004611b8f565b6111a1565b34801561040157600080fd5b5061015a610410366004611b8f565b61121a565b34801561042157600080fd5b5061042b60685481565b604051908152602001610190565b6065546040516331a9108f60e11b8152600481018390526000916001600160a01b031690636352211e90602401602060405180830381865afa158015610483573d6000803e3d6000fd5b505050506040513d601f19601f820116820180604052508101906104a79190611cf9565b6000838152606c6020908152604080832081516060810183528154815260018201546001600160a01b038116948201949094529495509293929190830190600160a01b900460ff16600381111561050057610500611c17565b600381111561051157610511611c17565b81525050905080602001516001600160a01b0316336001600160a01b0316146105735760405162461bcd60e51b815260206004820152600f60248201526e2727aa2faa27a824a1afa7aba722a960891b60448201526064015b60405180910390fd5b60008160400151600381111561058b5761058b611c17565b146105a85760405162461bcd60e51b815260040161056a90611d16565b6000838152606c6020526040808220600101805460ff60a01b1916600160a01b179055825190516001600160a01b0385169282156108fc02929190818181858888f19350505050158015610600573d6000803e3d6000fd5b50505050565b60005b81518110156107a457600082828151811061062657610626611d3c565b6020026020010151600001519050600083838151811061064857610648611d3c565b6020026020010151602001519050600084848151811061066a5761066a611d3c565b6020908102919091018101516040908101516001600160a01b0385166000908152606b909352912054909150156106d75760405162461bcd60e51b815260206004820152601160248201527054494d455f54524f56455f45584953545360781b604482015260640161056a565b6040516bffffffffffffffffffffffff1930606090811b8216602084015284901b16603482015260488101849052610730906068015b60408051601f1981840301815291905260665483906001600160a01b0316611306565b604080518082018252848152600060208083018281526001600160a01b038716808452606b9092528483209351845551600190930192909255915190917fd222986f567dbe87838ed775b073be72a475581a20f754c9b4cdf304953b104c91a25050508061079d90611d68565b9050610609565b5050565b336000908152606b6020526040902060010154806107f55760405162461bcd60e51b815260206004820152600a6024820152694e4f5f42414c414e434560b01b604482015260640161056a565b336000818152606b60205260408082206001018290555183156108fc0291849190818181858888f193505050501580156107a4573d6000803e3d6000fd5b61083b611424565b60676107a48282611e03565b6065546040516331a9108f60e11b8152600481018390526001600160a01b0390911690636352211e90602401602060405180830381865afa158015610890573d6000803e3d6000fd5b505050506040513d601f19601f820116820180604052508101906108b49190611cf9565b506000818152606c6020908152604080832081516060810183528154815260018201546001600160a01b03811694820194909452929091830190600160a01b900460ff16600381111561090957610909611c17565b600381111561091a5761091a611c17565b81525050905080602001516001600160a01b0316336001600160a01b0316146109775760405162461bcd60e51b815260206004820152600f60248201526e2727aa2faa27a824a1afa7aba722a960891b604482015260640161056a565b60008160400151600381111561098f5761098f611c17565b146109ac5760405162461bcd60e51b815260040161056a90611d16565b506000908152606c60205260409020600101805460ff60a01b1916600160a11b179055565b606780546109de90611d81565b80601f0160208091040260200160405190810160405280929190818152602001828054610a0a90611d81565b8015610a575780601f10610a2c57610100808354040283529160200191610a57565b820191906000526020600020905b815481529060010190602001808311610a3a57829003601f168201915b505050505081565b6065546040516331a9108f60e11b8152600481018390526000916001600160a01b031690636352211e90602401602060405180830381865afa158015610aa9573d6000803e3d6000fd5b505050506040513d601f19601f82011682018060405250810190610acd9190611cf9565b6000838152606c6020908152604080832081516060810183528154815260018201546001600160a01b038116948201949094529495509293929190830190600160a01b900460ff166003811115610b2657610b26611c17565b6003811115610b3757610b37611c17565b9052509050336001600160a01b03831614610b865760405162461bcd60e51b815260206004820152600f60248201526e2727aa2faa27a5a2a72fa7aba722a960891b604482015260640161056a565b600281604001516003811115610b9e57610b9e611c17565b14610bbb5760405162461bcd60e51b815260040161056a90611d16565b6000838152606c602090815260408083206001908101805460ff60a01b1916600360a01b1790558451858401516001600160a01b03168552606b90935290832001805491929091610c0d908490611ec3565b9091555050505050565b610c1f611424565b610c29600061147e565b565b610c33611424565b606680546001600160a01b0319166001600160a01b0392909216919091179055565b600054610100900460ff1615808015610c755750600054600160ff909116105b80610c8f5750303b158015610c8f575060005460ff166001145b610cf25760405162461bcd60e51b815260206004820152602e60248201527f496e697469616c697a61626c653a20636f6e747261637420697320616c72656160448201526d191e481a5b9a5d1a585b1a5e995960921b606482015260840161056a565b6000805460ff191660011790558015610d15576000805461ff0019166101001790555b610d1d6114d0565b606580546001600160a01b0319166001600160a01b0386161790556067610d448482611e03565b50606680546001600160a01b0319166001600160a01b0384161790558015610600576000805461ff0019169055604051600181527f7f26b83ff96e1f2b6a682f133852f6798a09c465da95921460cefb38474024989060200160405180910390a150505050565b610dcc60408051606081018252600080825260208201819052909182015290565b6000828152606c602090815260409182902082516060810184528154815260018201546001600160a01b0381169382019390935292909190830190600160a01b900460ff166003811115610e2257610e22611c17565b6003811115610e3357610e33611c17565b90525092915050565b6000818152606c602090815260408083208151606080820184528254825260018301546001600160a01b0381169583019590955294939092830190600160a01b900460ff166003811115610e9257610e92611c17565b6003811115610ea357610ea3611c17565b815250509050600060678054610eb890611d81565b9050118015610ed3575060208101516001600160a01b031615155b15610f0b576067610ee3846114ff565b604051602001610ef4929190611ed6565b604051602081830303815290604052915050919050565b5050604080516020810190915260008152919050565b50919050565b610f2f611424565b6040514790339082156108fc029083906000818181858888f193505050501580156107a4573d6000803e3d6000fd5b86431115610f985760405162461bcd60e51b8152602060048201526007602482015266115e1c1a5c995960ca1b604482015260640161056a565b348614610fdf5760405162461bcd60e51b8152602060048201526015602482015274496e636f72726563742065746865722076616c756560581b604482015260640161056a565b6040516bffffffffffffffffffffffff1930606090811b8216602084015233811b82166034840152604883018a9052606883018990526088830188905260a8830187905260c8830186905284901b1660e882015261103f9060fc0161070d565b6001606860008282546110529190611ec3565b9091555050604080516060810182528781526001600160a01b03848116602080840191825260008486018181526068548252606c909252949094208351815590516001820180546001600160a01b03198116929094169182178155945193949193926001600160a81b03191617600160a01b8360038111156110d6576110d6611c17565b0217905550506065546068546040516340c10f1960e01b815233600482015260248101919091526001600160a01b0390911691506340c10f1990604401600060405180830381600087803b15801561112d57600080fd5b505af1158015611141573d6000803e3d6000fd5b505060685460408051338152602081018a90529081018890529092508591506001600160a01b038516907f687824a6c125dcb60002ff015ab82ee9264c8fd9b86416bf189f421beb656c4e9060600160405180910390a450505050505050565b6111a9611424565b6001600160a01b03811661120e5760405162461bcd60e51b815260206004820152602660248201527f4f776e61626c653a206e6577206f776e657220697320746865207a65726f206160448201526564647265737360d01b606482015260840161056a565b6112178161147e565b50565b611222611424565b6040516370a0823160e01b81523060048201526000906001600160a01b038316906370a0823190602401602060405180830381865afa158015611269573d6000803e3d6000fd5b505050506040513d601f19601f8201168201806040525081019061128d9190611f5d565b60405163a9059cbb60e01b8152336004820152602481018290529091506001600160a01b0383169063a9059cbb906044016020604051808303816000875af11580156112dd573d6000803e3d6000fd5b505050506040513d601f19601f820116820180604052508101906113019190611f76565b505050565b6001600160a01b0381166113685760405162461bcd60e51b8152602060048201526024808201527f766572696669636174696f6e2061646472657373206e6f7420696e697469616c6044820152631a5e995960e21b606482015260840161056a565b806001600160a01b03166113da836113d486805190602001206040517f19457468657265756d205369676e6564204d6573736167653a0a3332000000006020820152603c8101829052600090605c01604051602081830303815290604052805190602001209050919050565b90611543565b6001600160a01b0316146113015760405162461bcd60e51b81526020600482015260116024820152701cda59db985d1d5c99481a5b9d985b1a59607a1b604482015260640161056a565b6033546001600160a01b03163314610c295760405162461bcd60e51b815260206004820181905260248201527f4f776e61626c653a2063616c6c6572206973206e6f7420746865206f776e6572604482015260640161056a565b603380546001600160a01b038381166001600160a01b0319831681179093556040519116919082907f8be0079c531659141344cd1fd0a4f28419497f9722a3daafe3b4186f6b6457e090600090a35050565b600054610100900460ff166114f75760405162461bcd60e51b815260040161056a90611f98565b610c29611569565b606060a06040510180604052602081039150506000815280825b600183039250600a81066030018353600a9004806115195750819003601f19909101908152919050565b60008060006115528585611599565b9150915061155f81611607565b5090505b92915050565b600054610100900460ff166115905760405162461bcd60e51b815260040161056a90611f98565b610c293361147e565b60008082516041036115cf5760208301516040840151606085015160001a6115c3878285856117bd565b94509450505050611600565b82516040036115f857602083015160408401516115ed8683836118aa565b935093505050611600565b506000905060025b9250929050565b600081600481111561161b5761161b611c17565b036116235750565b600181600481111561163757611637611c17565b036116845760405162461bcd60e51b815260206004820152601860248201527f45434453413a20696e76616c6964207369676e61747572650000000000000000604482015260640161056a565b600281600481111561169857611698611c17565b036116e55760405162461bcd60e51b815260206004820152601f60248201527f45434453413a20696e76616c6964207369676e6174757265206c656e67746800604482015260640161056a565b60038160048111156116f9576116f9611c17565b036117515760405162461bcd60e51b815260206004820152602260248201527f45434453413a20696e76616c6964207369676e6174757265202773272076616c604482015261756560f01b606482015260840161056a565b600481600481111561176557611765611c17565b036112175760405162461bcd60e51b815260206004820152602260248201527f45434453413a20696e76616c6964207369676e6174757265202776272076616c604482015261756560f01b606482015260840161056a565b6000807f7fffffffffffffffffffffffffffffff5d576e7357a4501ddfe92f46681b20a08311156117f457506000905060036118a1565b8460ff16601b1415801561180c57508460ff16601c14155b1561181d57506000905060046118a1565b6040805160008082526020820180845289905260ff881692820192909252606081018690526080810185905260019060a0016020604051602081039080840390855afa158015611871573d6000803e3d6000fd5b5050604051601f1901519150506001600160a01b03811661189a576000600192509250506118a1565b9150600090505b94509492505050565b6000806001600160ff1b03831660ff84901c601b016118cb878288856117bd565b935093505050935093915050565b6000602082840312156118eb57600080fd5b5035919050565b634e487b7160e01b600052604160045260246000fd5b6040516060810167ffffffffffffffff8111828210171561192b5761192b6118f2565b60405290565b604051601f8201601f1916810167ffffffffffffffff8111828210171561195a5761195a6118f2565b604052919050565b6001600160a01b038116811461121757600080fd5b600082601f83011261198857600080fd5b813567ffffffffffffffff8111156119a2576119a26118f2565b6119b5601f8201601f1916602001611931565b8181528460208386010111156119ca57600080fd5b816020850160208301376000918101602001919091529392505050565b600060208083850312156119fa57600080fd5b823567ffffffffffffffff80821115611a1257600080fd5b818501915085601f830112611a2657600080fd5b813581811115611a3857611a386118f2565b8060051b611a47858201611931565b9182528381018501918581019089841115611a6157600080fd5b86860192505b83831015611aee57823585811115611a7f5760008081fd5b86016060818c03601f1901811315611a975760008081fd5b611a9f611908565b898301358152604080840135611ab481611962565b828c0152918301359188831115611acb5760008081fd5b611ad98e8c85870101611977565b90820152845250509186019190860190611a67565b9998505050505050505050565b600060208284031215611b0d57600080fd5b813567ffffffffffffffff811115611b2457600080fd5b611b3084828501611977565b949350505050565b60005b83811015611b53578181015183820152602001611b3b565b50506000910152565b6020815260008251806020840152611b7b816040850160208701611b38565b601f01601f19169190910160400192915050565b600060208284031215611ba157600080fd5b8135611bac81611962565b9392505050565b600080600060608486031215611bc857600080fd5b8335611bd381611962565b9250602084013567ffffffffffffffff811115611bef57600080fd5b611bfb86828701611977565b9250506040840135611c0c81611962565b809150509250925092565b634e487b7160e01b600052602160045260246000fd5b815181526020808301516001600160a01b0316908201526040820151606082019060048110611c6c57634e487b7160e01b600052602160045260246000fd5b8060408401525092915050565b600080600080600080600060e0888a031215611c9457600080fd5b873596506020880135955060408801359450606088013593506080880135925060a0880135611cc281611962565b915060c088013567ffffffffffffffff811115611cde57600080fd5b611cea8a828b01611977565b91505092959891949750929550565b600060208284031215611d0b57600080fd5b8151611bac81611962565b6020808252600c908201526b57524f4e475f53544154555360a01b604082015260600190565b634e487b7160e01b600052603260045260246000fd5b634e487b7160e01b600052601160045260246000fd5b600060018201611d7a57611d7a611d52565b5060010190565b600181811c90821680611d9557607f821691505b602082108103610f2157634e487b7160e01b600052602260045260246000fd5b601f82111561130157600081815260208120601f850160051c81016020861015611ddc5750805b601f850160051c820191505b81811015611dfb57828155600101611de8565b505050505050565b815167ffffffffffffffff811115611e1d57611e1d6118f2565b611e3181611e2b8454611d81565b84611db5565b602080601f831160018114611e665760008415611e4e5750858301515b600019600386901b1c1916600185901b178555611dfb565b600085815260208120601f198616915b82811015611e9557888601518255948401946001909101908401611e76565b5085821015611eb35787850151600019600388901b60f8161c191681555b5050505050600190811b01905550565b8082018082111561156357611563611d52565b6000808454611ee481611d81565b60018281168015611efc5760018114611f1157611f40565b60ff1984168752821515830287019450611f40565b8860005260208060002060005b85811015611f375781548a820152908401908201611f1e565b50505082870194505b505050508351611f54818360208801611b38565b01949350505050565b600060208284031215611f6f57600080fd5b5051919050565b600060208284031215611f8857600080fd5b81518015158114611bac57600080fd5b6020808252602b908201527f496e697469616c697a61626c653a20636f6e7472616374206973206e6f74206960408201526a6e697469616c697a696e6760a81b60608201526080019056fea2646970667358221220c40a830965c2dae683444671755c4e4a0cc042eb5393ff4c6b26c67ce03bd82f64736f6c63430008110033",
  "devdoc": {
    "kind": "dev",
    "methods": {
      "mintTimeToken(uint256,uint256,bytes32,bytes32,bytes32,address,bytes)": {
        "details": "TimeToken"
      },
      "owner()": {
        "details": "Returns the address of the current owner."
      },
      "renounceOwnership()": {
        "details": "Leaves the contract without owner. It will not be possible to call `onlyOwner` functions anymore. Can only be called by the current owner. NOTE: Renouncing ownership will leave the contract without an owner, thereby removing any functionality that is only available to the owner."
      },
      "tokenURI(uint256)": {
        "details": "Render"
      },
      "transferOwnership(address)": {
        "details": "Transfers ownership of the contract to a new account (`newOwner`). Can only be called by the current owner."
      }
    },
    "stateVariables": {
      "_claimedMintKeysLegacy": {
        "details": "Key(uint256) mapping to a claimed key. Used to prevent address from rebroadcasting mint transactions"
      }
    },
    "version": 1
  },
  "userdoc": {
    "kind": "user",
    "methods": {},
    "version": 1
  },
  "storageLayout": {
    "storage": [
      {
        "astId": 1424,
        "contract": "hardhat/contracts/MuseTimeController.sol:MuseTimeController",
        "label": "_initialized",
        "offset": 0,
        "slot": "0",
        "type": "t_uint8"
      },
      {
        "astId": 1427,
        "contract": "hardhat/contracts/MuseTimeController.sol:MuseTimeController",
        "label": "_initializing",
        "offset": 1,
        "slot": "0",
        "type": "t_bool"
      },
      {
        "astId": 1911,
        "contract": "hardhat/contracts/MuseTimeController.sol:MuseTimeController",
        "label": "__gap",
        "offset": 0,
        "slot": "1",
        "type": "t_array(t_uint256)50_storage"
      },
      {
        "astId": 1296,
        "contract": "hardhat/contracts/MuseTimeController.sol:MuseTimeController",
        "label": "_owner",
        "offset": 0,
        "slot": "51",
        "type": "t_address"
      },
      {
        "astId": 1416,
        "contract": "hardhat/contracts/MuseTimeController.sol:MuseTimeController",
        "label": "__gap",
        "offset": 0,
        "slot": "52",
        "type": "t_array(t_uint256)49_storage"
      },
      {
        "astId": 177,
        "contract": "hardhat/contracts/MuseTimeController.sol:MuseTimeController",
        "label": "museTimeNFT",
        "offset": 0,
        "slot": "101",
        "type": "t_address"
      },
      {
        "astId": 179,
        "contract": "hardhat/contracts/MuseTimeController.sol:MuseTimeController",
        "label": "paramsSigner",
        "offset": 0,
        "slot": "102",
        "type": "t_address"
      },
      {
        "astId": 181,
        "contract": "hardhat/contracts/MuseTimeController.sol:MuseTimeController",
        "label": "baseURI",
        "offset": 0,
        "slot": "103",
        "type": "t_string_storage"
      },
      {
        "astId": 183,
        "contract": "hardhat/contracts/MuseTimeController.sol:MuseTimeController",
        "label": "mintIndex",
        "offset": 0,
        "slot": "104",
        "type": "t_uint256"
      },
      {
        "astId": 188,
        "contract": "hardhat/contracts/MuseTimeController.sol:MuseTimeController",
        "label": "_claimedMintKeysLegacy",
        "offset": 0,
        "slot": "105",
        "type": "t_mapping(t_uint256,t_bool)"
      },
      {
        "astId": 193,
        "contract": "hardhat/contracts/MuseTimeController.sol:MuseTimeController",
        "label": "_timeTrovesLegacy",
        "offset": 0,
        "slot": "106",
        "type": "t_mapping(t_address,t_struct(TimeTrove)162_storage)"
      },
      {
        "astId": 198,
        "contract": "hardhat/contracts/MuseTimeController.sol:MuseTimeController",
        "label": "_timeTroves",
        "offset": 0,
        "slot": "107",
        "type": "t_mapping(t_address,t_struct(TimeTrove)162_storage)"
      },
      {
        "astId": 203,
        "contract": "hardhat/contracts/MuseTimeController.sol:MuseTimeController",
        "label": "_timeTokens",
        "offset": 0,
        "slot": "108",
        "type": "t_mapping(t_uint256,t_struct(TimeToken)175_storage)"
      }
    ],
    "types": {
      "t_address": {
        "encoding": "inplace",
        "label": "address",
        "numberOfBytes": "20"
      },
      "t_array(t_uint256)49_storage": {
        "base": "t_uint256",
        "encoding": "inplace",
        "label": "uint256[49]",
        "numberOfBytes": "1568"
      },
      "t_array(t_uint256)50_storage": {
        "base": "t_uint256",
        "encoding": "inplace",
        "label": "uint256[50]",
        "numberOfBytes": "1600"
      },
      "t_bool": {
        "encoding": "inplace",
        "label": "bool",
        "numberOfBytes": "1"
      },
      "t_bytes32": {
        "encoding": "inplace",
        "label": "bytes32",
        "numberOfBytes": "32"
      },
      "t_enum(TimeTokenStatus)167": {
        "encoding": "inplace",
        "label": "enum MuseTimeController.TimeTokenStatus",
        "numberOfBytes": "1"
      },
      "t_mapping(t_address,t_struct(TimeTrove)162_storage)": {
        "encoding": "mapping",
        "key": "t_address",
        "label": "mapping(address => struct MuseTimeController.TimeTrove)",
        "numberOfBytes": "32",
        "value": "t_struct(TimeTrove)162_storage"
      },
      "t_mapping(t_uint256,t_bool)": {
        "encoding": "mapping",
        "key": "t_uint256",
        "label": "mapping(uint256 => bool)",
        "numberOfBytes": "32",
        "value": "t_bool"
      },
      "t_mapping(t_uint256,t_struct(TimeToken)175_storage)": {
        "encoding": "mapping",
        "key": "t_uint256",
        "label": "mapping(uint256 => struct MuseTimeController.TimeToken)",
        "numberOfBytes": "32",
        "value": "t_struct(TimeToken)175_storage"
      },
      "t_string_storage": {
        "encoding": "bytes",
        "label": "string",
        "numberOfBytes": "32"
      },
      "t_struct(TimeToken)175_storage": {
        "encoding": "inplace",
        "label": "struct MuseTimeController.TimeToken",
        "members": [
          {
            "astId": 169,
            "contract": "hardhat/contracts/MuseTimeController.sol:MuseTimeController",
            "label": "valueInWei",
            "offset": 0,
            "slot": "0",
            "type": "t_uint256"
          },
          {
            "astId": 171,
            "contract": "hardhat/contracts/MuseTimeController.sol:MuseTimeController",
            "label": "topicOwner",
            "offset": 0,
            "slot": "1",
            "type": "t_address"
          },
          {
            "astId": 174,
            "contract": "hardhat/contracts/MuseTimeController.sol:MuseTimeController",
            "label": "status",
            "offset": 20,
            "slot": "1",
            "type": "t_enum(TimeTokenStatus)167"
          }
        ],
        "numberOfBytes": "64"
      },
      "t_struct(TimeTrove)162_storage": {
        "encoding": "inplace",
        "label": "struct MuseTimeController.TimeTrove",
        "members": [
          {
            "astId": 159,
            "contract": "hardhat/contracts/MuseTimeController.sol:MuseTimeController",
            "label": "arOwnerAddress",
            "offset": 0,
            "slot": "0",
            "type": "t_bytes32"
          },
          {
            "astId": 161,
            "contract": "hardhat/contracts/MuseTimeController.sol:MuseTimeController",
            "label": "balance",
            "offset": 0,
            "slot": "1",
            "type": "t_uint256"
          }
        ],
        "numberOfBytes": "64"
      },
      "t_uint256": {
        "encoding": "inplace",
        "label": "uint256",
        "numberOfBytes": "32"
      },
      "t_uint8": {
        "encoding": "inplace",
        "label": "uint8",
        "numberOfBytes": "1"
      }
    }
  }
}