{
  "address": "0xF6e4D7f83A6f4027489728D9248EEA67C17fC8d9",
  "abi": [
    {
      "anonymous": false,
      "inputs": [
        {
          "indexed": false,
          "internalType": "uint8",
          "name": "version",
          "type": "uint8"
        }
      ],
      "name": "Initialized",
      "type": "event"
    },
    {
      "anonymous": false,
      "inputs": [
        {
          "indexed": true,
          "internalType": "address",
          "name": "previousOwner",
          "type": "address"
        },
        {
          "indexed": true,
          "internalType": "address",
          "name": "newOwner",
          "type": "address"
        }
      ],
      "name": "OwnershipTransferred",
      "type": "event"
    },
    {
      "anonymous": false,
      "inputs": [
        {
          "indexed": true,
          "internalType": "address",
          "name": "topicOwner",
          "type": "address"
        },
        {
          "indexed": true,
          "internalType": "string",
          "name": "topicSlug",
          "type": "string"
        },
        {
          "indexed": true,
          "internalType": "address",
          "name": "tokenOwner",
          "type": "address"
        },
        {
          "indexed": false,
          "internalType": "uint256",
          "name": "tokenId",
          "type": "uint256"
        }
      ],
      "name": "TimeTokenMinted",
      "type": "event"
    },
    {
      "anonymous": false,
      "inputs": [
        {
          "indexed": true,
          "internalType": "address",
          "name": "topicOwner",
          "type": "address"
        }
      ],
      "name": "TimeTroveCreated",
      "type": "event"
    },
    {
      "inputs": [],
      "name": "baseURI",
      "outputs": [
        {
          "internalType": "string",
          "name": "",
          "type": "string"
        }
      ],
      "stateMutability": "view",
      "type": "function"
    },
    {
      "inputs": [
        {
          "internalType": "string",
          "name": "arOwnerAddress",
          "type": "string"
        },
        {
          "internalType": "bytes",
          "name": "signature",
          "type": "bytes"
        }
      ],
      "name": "createTimeTrove",
      "outputs": [],
      "stateMutability": "nonpayable",
      "type": "function"
    },
    {
      "inputs": [
        {
          "internalType": "address",
          "name": "museTimeNFT_",
          "type": "address"
        },
        {
          "internalType": "string",
          "name": "baseURI_",
          "type": "string"
        },
        {
          "internalType": "address",
          "name": "paramsSigner_",
          "type": "address"
        }
      ],
      "name": "initialize",
      "outputs": [],
      "stateMutability": "nonpayable",
      "type": "function"
    },
    {
      "inputs": [],
      "name": "mintIndex",
      "outputs": [
        {
          "internalType": "uint256",
          "name": "",
          "type": "uint256"
        }
      ],
      "stateMutability": "view",
      "type": "function"
    },
    {
      "inputs": [
        {
          "internalType": "uint256",
          "name": "mintKey",
          "type": "uint256"
        },
        {
          "internalType": "uint256",
          "name": "valueInWei",
          "type": "uint256"
        },
        {
          "internalType": "address",
          "name": "topicOwner",
          "type": "address"
        },
        {
          "internalType": "string",
          "name": "topicSlug",
          "type": "string"
        },
        {
          "internalType": "string",
          "name": "profileArId",
          "type": "string"
        },
        {
          "internalType": "string",
          "name": "topicsArId",
          "type": "string"
        },
        {
          "internalType": "bytes",
          "name": "signature",
          "type": "bytes"
        }
      ],
      "name": "mintTimeToken",
      "outputs": [],
      "stateMutability": "payable",
      "type": "function"
    },
    {
      "inputs": [],
      "name": "museTimeNFT",
      "outputs": [
        {
          "internalType": "address",
          "name": "",
          "type": "address"
        }
      ],
      "stateMutability": "view",
      "type": "function"
    },
    {
      "inputs": [],
      "name": "owner",
      "outputs": [
        {
          "internalType": "address",
          "name": "",
          "type": "address"
        }
      ],
      "stateMutability": "view",
      "type": "function"
    },
    {
      "inputs": [],
      "name": "paramsSigner",
      "outputs": [
        {
          "internalType": "address",
          "name": "",
          "type": "address"
        }
      ],
      "stateMutability": "view",
      "type": "function"
    },
    {
      "inputs": [],
      "name": "renounceOwnership",
      "outputs": [],
      "stateMutability": "nonpayable",
      "type": "function"
    },
    {
      "inputs": [
        {
          "internalType": "string",
          "name": "baseURI_",
          "type": "string"
        }
      ],
      "name": "setBaseURI",
      "outputs": [],
      "stateMutability": "nonpayable",
      "type": "function"
    },
    {
      "inputs": [
        {
          "internalType": "uint256",
          "name": "tokenId",
          "type": "uint256"
        }
      ],
      "name": "setConfirmed",
      "outputs": [],
      "stateMutability": "nonpayable",
      "type": "function"
    },
    {
      "inputs": [
        {
          "internalType": "uint256",
          "name": "tokenId",
          "type": "uint256"
        }
      ],
      "name": "setFulfilled",
      "outputs": [],
      "stateMutability": "nonpayable",
      "type": "function"
    },
    {
      "inputs": [
        {
          "internalType": "address",
          "name": "paramsSigner_",
          "type": "address"
        }
      ],
      "name": "setParamsSigner",
      "outputs": [],
      "stateMutability": "nonpayable",
      "type": "function"
    },
    {
      "inputs": [
        {
          "internalType": "uint256",
          "name": "tokenId",
          "type": "uint256"
        }
      ],
      "name": "setRejected",
      "outputs": [],
      "stateMutability": "nonpayable",
      "type": "function"
    },
    {
      "inputs": [
        {
          "internalType": "uint256",
          "name": "tokenId",
          "type": "uint256"
        }
      ],
      "name": "timeTokenOf",
      "outputs": [
        {
          "components": [
            {
              "internalType": "uint256",
              "name": "valueInWei",
              "type": "uint256"
            },
            {
              "internalType": "address",
              "name": "topicOwner",
              "type": "address"
            },
            {
              "internalType": "string",
              "name": "topicSlug",
              "type": "string"
            },
            {
              "internalType": "string",
              "name": "profileArId",
              "type": "string"
            },
            {
              "internalType": "string",
              "name": "topicsArId",
              "type": "string"
            },
            {
              "internalType": "enum MuseTimeController.TimeTokenStatus",
              "name": "status",
              "type": "uint8"
            }
          ],
          "internalType": "struct MuseTimeController.TimeToken",
          "name": "",
          "type": "tuple"
        }
      ],
      "stateMutability": "view",
      "type": "function"
    },
    {
      "inputs": [
        {
          "internalType": "address",
          "name": "topicOwner",
          "type": "address"
        }
      ],
      "name": "timeTroveOf",
      "outputs": [
        {
          "components": [
            {
              "internalType": "string",
              "name": "arOwnerAddress",
              "type": "string"
            },
            {
              "internalType": "uint256",
              "name": "balance",
              "type": "uint256"
            }
          ],
          "internalType": "struct MuseTimeController.TimeTrove",
          "name": "",
          "type": "tuple"
        }
      ],
      "stateMutability": "view",
      "type": "function"
    },
    {
      "inputs": [
        {
          "internalType": "uint256",
          "name": "tokenId",
          "type": "uint256"
        }
      ],
      "name": "tokenURI",
      "outputs": [
        {
          "internalType": "string",
          "name": "",
          "type": "string"
        }
      ],
      "stateMutability": "view",
      "type": "function"
    },
    {
      "inputs": [
        {
          "internalType": "address",
          "name": "newOwner",
          "type": "address"
        }
      ],
      "name": "transferOwnership",
      "outputs": [],
      "stateMutability": "nonpayable",
      "type": "function"
    },
    {
      "inputs": [
        {
          "internalType": "contract IERC20",
          "name": "token",
          "type": "address"
        }
      ],
      "name": "withdrawERC20",
      "outputs": [],
      "stateMutability": "nonpayable",
      "type": "function"
    },
    {
      "inputs": [],
      "name": "withdrawETH",
      "outputs": [],
      "stateMutability": "nonpayable",
      "type": "function"
    },
    {
      "inputs": [],
      "name": "withdrawFromTimeTrove",
      "outputs": [],
      "stateMutability": "nonpayable",
      "type": "function"
    },
    {
      "stateMutability": "payable",
      "type": "receive"
    }
  ],
  "transactionHash": "0x20aa62dcca54f102c2b09cbdb9b6c87e72ec9156c226b7603545bbc2c9ce1ca9",
  "args": [],
  "numDeployments": 1,
  "solcInputHash": "f9a3d195a5f79ab9db99f4dc120f9d0e",
  "bytecode": "0x608060405234801561001057600080fd5b50612a0d806100206000396000f3fe60806040526004361061012e5760003560e01c806372ef3205116100ab578063b5dc297e1161006f578063b5dc297e14610323578063c87b56dd14610350578063e086e5ec14610370578063f2fde38b14610385578063f4f3b200146103a5578063f74f9bfd146103c557600080fd5b806372ef3205146102855780637bb7c0d8146102a55780637d93ebcc146102c55780638da5cb5b146102d8578063afe290a1146102f657600080fd5b806355f804b3116100f257806355f804b3146101ee57806360c18bc11461020e5780636c0360eb1461022e5780636e44771014610250578063715018a61461027057600080fd5b806301e1fb5a1461013a57806302f71cf81461015c57806308678bb61461017c5780630cbee0d3146101b9578063424a4fa1146101d957600080fd5b3661013557005b600080fd5b34801561014657600080fd5b5061015a610155366004612244565b6103e9565b005b34801561016857600080fd5b5061015a6101773660046122a8565b610494565b34801561018857600080fd5b5060665461019c906001600160a01b031681565b6040516001600160a01b0390911681526020015b60405180910390f35b3480156101c557600080fd5b5060655461019c906001600160a01b031681565b3480156101e557600080fd5b5061015a610814565b3480156101fa57600080fd5b5061015a6102093660046122c1565b6108a3565b34801561021a57600080fd5b5061015a6102293660046122a8565b6108b7565b34801561023a57600080fd5b50610243610bf1565b6040516101b0919061234e565b34801561025c57600080fd5b5061015a61026b3660046122a8565b610c7f565b34801561027c57600080fd5b5061015a610fe9565b34801561029157600080fd5b5061015a6102a036600461238d565b610ffd565b3480156102b157600080fd5b5061015a6102c03660046123aa565b611027565b61015a6102d336600461240e565b61117d565b3480156102e457600080fd5b506033546001600160a01b031661019c565b34801561030257600080fd5b5061031661031136600461238d565b61140d565b6040516101b091906124df565b34801561032f57600080fd5b5061034361033e3660046122a8565b6114e6565b6040516101b09190612527565b34801561035c57600080fd5b5061024361036b3660046122a8565b611716565b34801561037c57600080fd5b5061015a6119e3565b34801561039157600080fd5b5061015a6103a036600461238d565b611a1a565b3480156103b157600080fd5b5061015a6103c036600461238d565b611a93565b3480156103d157600080fd5b506103db60685481565b6040519081526020016101b0565b610424338330604051602001610401939291906125d1565b60408051601f1981840301815291905260665483906001600160a01b0316611b7f565b60408051808201825283815260006020808301829052338252606a90529190912081518291908190610456908261269b565b506020919091015160019091015560405133907fd222986f567dbe87838ed775b073be72a475581a20f754c9b4cdf304953b104c90600090a2505050565b6065546040516331a9108f60e11b8152600481018390526000916001600160a01b031690636352211e90602401602060405180830381865afa1580156104de573d6000803e3d6000fd5b505050506040513d601f19601f82011682018060405250810190610502919061275b565b6000838152606b60209081526040808320815160c0810183528154815260018201546001600160a01b0316938101939093526002810180549596509394929390929184019161055090612619565b80601f016020809104026020016040519081016040528092919081815260200182805461057c90612619565b80156105c95780601f1061059e576101008083540402835291602001916105c9565b820191906000526020600020905b8154815290600101906020018083116105ac57829003601f168201915b505050505081526020016003820180546105e290612619565b80601f016020809104026020016040519081016040528092919081815260200182805461060e90612619565b801561065b5780601f106106305761010080835404028352916020019161065b565b820191906000526020600020905b81548152906001019060200180831161063e57829003601f168201915b5050505050815260200160048201805461067490612619565b80601f01602080910402602001604051908101604052809291908181526020018280546106a090612619565b80156106ed5780601f106106c2576101008083540402835291602001916106ed565b820191906000526020600020905b8154815290600101906020018083116106d057829003601f168201915b5050509183525050600582015460209091019060ff16600381111561071457610714612511565b600381111561072557610725612511565b81525050905080602001516001600160a01b0316336001600160a01b0316146107875760405162461bcd60e51b815260206004820152600f60248201526e2727aa2faa27a824a1afa7aba722a960891b60448201526064015b60405180910390fd5b60008160a00151600381111561079f5761079f612511565b146107bc5760405162461bcd60e51b815260040161077e90612778565b6000838152606b6020526040808220600501805460ff19166001179055825190516001600160a01b038516926108fc831502929190818181858888f1935050505015801561080e573d6000803e3d6000fd5b50505050565b336000908152606a6020526040902060010154806108615760405162461bcd60e51b815260206004820152600a6024820152694e4f5f42414c414e434560b01b604482015260640161077e565b336000818152606a60205260408082206001018290555183156108fc0291849190818181858888f1935050505015801561089f573d6000803e3d6000fd5b5050565b6108ab611c9d565b606761089f828261269b565b6065546040516331a9108f60e11b8152600481018390526001600160a01b0390911690636352211e90602401602060405180830381865afa158015610900573d6000803e3d6000fd5b505050506040513d601f19601f82011682018060405250810190610924919061275b565b506000818152606b60209081526040808320815160c0810183528154815260018201546001600160a01b031693810193909352600281018054919284019161096b90612619565b80601f016020809104026020016040519081016040528092919081815260200182805461099790612619565b80156109e45780601f106109b9576101008083540402835291602001916109e4565b820191906000526020600020905b8154815290600101906020018083116109c757829003601f168201915b505050505081526020016003820180546109fd90612619565b80601f0160208091040260200160405190810160405280929190818152602001828054610a2990612619565b8015610a765780601f10610a4b57610100808354040283529160200191610a76565b820191906000526020600020905b815481529060010190602001808311610a5957829003601f168201915b50505050508152602001600482018054610a8f90612619565b80601f0160208091040260200160405190810160405280929190818152602001828054610abb90612619565b8015610b085780601f10610add57610100808354040283529160200191610b08565b820191906000526020600020905b815481529060010190602001808311610aeb57829003601f168201915b5050509183525050600582015460209091019060ff166003811115610b2f57610b2f612511565b6003811115610b4057610b40612511565b81525050905080602001516001600160a01b0316336001600160a01b031614610b9d5760405162461bcd60e51b815260206004820152600f60248201526e2727aa2faa27a824a1afa7aba722a960891b604482015260640161077e565b60008160a001516003811115610bb557610bb5612511565b14610bd25760405162461bcd60e51b815260040161077e90612778565b506000908152606b60205260409020600501805460ff19166002179055565b60678054610bfe90612619565b80601f0160208091040260200160405190810160405280929190818152602001828054610c2a90612619565b8015610c775780601f10610c4c57610100808354040283529160200191610c77565b820191906000526020600020905b815481529060010190602001808311610c5a57829003601f168201915b505050505081565b6065546040516331a9108f60e11b8152600481018390526000916001600160a01b031690636352211e90602401602060405180830381865afa158015610cc9573d6000803e3d6000fd5b505050506040513d601f19601f82011682018060405250810190610ced919061275b565b6000838152606b60209081526040808320815160c0810183528154815260018201546001600160a01b03169381019390935260028101805495965093949293909291840191610d3b90612619565b80601f0160208091040260200160405190810160405280929190818152602001828054610d6790612619565b8015610db45780601f10610d8957610100808354040283529160200191610db4565b820191906000526020600020905b815481529060010190602001808311610d9757829003601f168201915b50505050508152602001600382018054610dcd90612619565b80601f0160208091040260200160405190810160405280929190818152602001828054610df990612619565b8015610e465780601f10610e1b57610100808354040283529160200191610e46565b820191906000526020600020905b815481529060010190602001808311610e2957829003601f168201915b50505050508152602001600482018054610e5f90612619565b80601f0160208091040260200160405190810160405280929190818152602001828054610e8b90612619565b8015610ed85780601f10610ead57610100808354040283529160200191610ed8565b820191906000526020600020905b815481529060010190602001808311610ebb57829003601f168201915b5050509183525050600582015460209091019060ff166003811115610eff57610eff612511565b6003811115610f1057610f10612511565b9052509050336001600160a01b03831614610f5f5760405162461bcd60e51b815260206004820152600f60248201526e2727aa2faa27a5a2a72fa7aba722a960891b604482015260640161077e565b60028160a001516003811115610f7757610f77612511565b14610f945760405162461bcd60e51b815260040161077e90612778565b6000838152606b60209081526040808320600501805460ff191660031790558351848301516001600160a01b03168452606a9092528220600101805491929091610fdf90849061279e565b9091555050505050565b610ff1611c9d565b610ffb6000611cf7565b565b611005611c9d565b606680546001600160a01b0319166001600160a01b0392909216919091179055565b600054610100900460ff16158080156110475750600054600160ff909116105b806110615750303b158015611061575060005460ff166001145b6110c45760405162461bcd60e51b815260206004820152602e60248201527f496e697469616c697a61626c653a20636f6e747261637420697320616c72656160448201526d191e481a5b9a5d1a585b1a5e995960921b606482015260840161077e565b6000805460ff1916600117905580156110e7576000805461ff0019166101001790555b6110ef611d49565b606580546001600160a01b0319166001600160a01b0386161790556067611116848261269b565b50606680546001600160a01b0319166001600160a01b038416179055801561080e576000805461ff0019169055604051600181527f7f26b83ff96e1f2b6a682f133852f6798a09c465da95921460cefb38474024989060200160405180910390a150505050565b60008781526069602052604090205460ff16156111cf5760405162461bcd60e51b815260206004820152601060248201526f1352539517d2d15657d0d3105253515160821b604482015260640161077e565b3486146112165760405162461bcd60e51b8152602060048201526015602482015274496e636f72726563742065746865722076616c756560581b604482015260640161077e565b61123833888888888888306040516020016104019897969594939291906127bf565b6000878152606960205260408120805460ff19166001908117909155606880549192909161126790849061279e565b90915550506040805160c0810182528781526001600160a01b0387811660208084019182528385018981526060850189905260808501889052600060a086018190526068548152606b9092529490208351815590516001820180546001600160a01b031916919093161790915591519091829160028201906112e9908261269b565b50606082015160038201906112fe908261269b565b5060808201516004820190611313908261269b565b5060a082015160058201805460ff1916600183600381111561133757611337612511565b0217905550506065546068546040516340c10f1960e01b815233600482015260248101919091526001600160a01b0390911691506340c10f1990604401600060405180830381600087803b15801561138e57600080fd5b505af11580156113a2573d6000803e3d6000fd5b50506040513392506113b691508790612854565b6040518091039020876001600160a01b03167fec8c85db54bbcefaacc09d7a5d4ff559bdd92ecab1bc37753f28075cd4e5e2fd6068546040516113fb91815260200190565b60405180910390a45050505050505050565b6040805180820190915260608152600060208201526001600160a01b0382166000908152606a602052604090819020815180830190925280548290829061145390612619565b80601f016020809104026020016040519081016040528092919081815260200182805461147f90612619565b80156114cc5780601f106114a1576101008083540402835291602001916114cc565b820191906000526020600020905b8154815290600101906020018083116114af57829003601f168201915b505050505081526020016001820154815250509050919050565b6114ee612152565b6000828152606b6020908152604091829020825160c0810184528154815260018201546001600160a01b031692810192909252600281018054929391929184019161153890612619565b80601f016020809104026020016040519081016040528092919081815260200182805461156490612619565b80156115b15780601f10611586576101008083540402835291602001916115b1565b820191906000526020600020905b81548152906001019060200180831161159457829003601f168201915b505050505081526020016003820180546115ca90612619565b80601f01602080910402602001604051908101604052809291908181526020018280546115f690612619565b80156116435780601f1061161857610100808354040283529160200191611643565b820191906000526020600020905b81548152906001019060200180831161162657829003601f168201915b5050505050815260200160048201805461165c90612619565b80601f016020809104026020016040519081016040528092919081815260200182805461168890612619565b80156116d55780601f106116aa576101008083540402835291602001916116d5565b820191906000526020600020905b8154815290600101906020018083116116b857829003601f168201915b5050509183525050600582015460209091019060ff1660038111156116fc576116fc612511565b600381111561170d5761170d612511565b90525092915050565b6000818152606b60209081526040808320815160c0810183528154815260018201546001600160a01b03169381019390935260028101805460609594938401919061176090612619565b80601f016020809104026020016040519081016040528092919081815260200182805461178c90612619565b80156117d95780601f106117ae576101008083540402835291602001916117d9565b820191906000526020600020905b8154815290600101906020018083116117bc57829003601f168201915b505050505081526020016003820180546117f290612619565b80601f016020809104026020016040519081016040528092919081815260200182805461181e90612619565b801561186b5780601f106118405761010080835404028352916020019161186b565b820191906000526020600020905b81548152906001019060200180831161184e57829003601f168201915b5050505050815260200160048201805461188490612619565b80601f01602080910402602001604051908101604052809291908181526020018280546118b090612619565b80156118fd5780601f106118d2576101008083540402835291602001916118fd565b820191906000526020600020905b8154815290600101906020018083116118e057829003601f168201915b5050509183525050600582015460209091019060ff16600381111561192457611924612511565b600381111561193557611935612511565b81525050905060006067805461194a90612619565b905011801561195e57506000816040015151115b156119c757600061196e84611d78565b8260400151836080015160405160200161198a93929190612870565b60405160208183030381529060405290506067816040516020016119af9291906128ca565b60405160208183030381529060405292505050919050565b5050604080516020810190915260008152919050565b50919050565b6119eb611c9d565b6040514790339082156108fc029083906000818181858888f1935050505015801561089f573d6000803e3d6000fd5b611a22611c9d565b6001600160a01b038116611a875760405162461bcd60e51b815260206004820152602660248201527f4f776e61626c653a206e6577206f776e657220697320746865207a65726f206160448201526564647265737360d01b606482015260840161077e565b611a9081611cf7565b50565b611a9b611c9d565b6040516370a0823160e01b81523060048201526000906001600160a01b038316906370a0823190602401602060405180830381865afa158015611ae2573d6000803e3d6000fd5b505050506040513d601f19601f82011682018060405250810190611b069190612951565b60405163a9059cbb60e01b8152336004820152602481018290529091506001600160a01b0383169063a9059cbb906044016020604051808303816000875af1158015611b56573d6000803e3d6000fd5b505050506040513d601f19601f82011682018060405250810190611b7a919061296a565b505050565b6001600160a01b038116611be15760405162461bcd60e51b8152602060048201526024808201527f766572696669636174696f6e2061646472657373206e6f7420696e697469616c6044820152631a5e995960e21b606482015260840161077e565b806001600160a01b0316611c5383611c4d86805190602001206040517f19457468657265756d205369676e6564204d6573736167653a0a3332000000006020820152603c8101829052600090605c01604051602081830303815290604052805190602001209050919050565b90611dbc565b6001600160a01b031614611b7a5760405162461bcd60e51b81526020600482015260116024820152701cda59db985d1d5c99481a5b9d985b1a59607a1b604482015260640161077e565b6033546001600160a01b03163314610ffb5760405162461bcd60e51b815260206004820181905260248201527f4f776e61626c653a2063616c6c6572206973206e6f7420746865206f776e6572604482015260640161077e565b603380546001600160a01b038381166001600160a01b0319831681179093556040519116919082907f8be0079c531659141344cd1fd0a4f28419497f9722a3daafe3b4186f6b6457e090600090a35050565b600054610100900460ff16611d705760405162461bcd60e51b815260040161077e9061298c565b610ffb611de2565b606060a06040510180604052602081039150506000815280825b600183039250600a81066030018353600a900480611d925750819003601f19909101908152919050565b6000806000611dcb8585611e12565b91509150611dd881611e80565b5090505b92915050565b600054610100900460ff16611e095760405162461bcd60e51b815260040161077e9061298c565b610ffb33611cf7565b6000808251604103611e485760208301516040840151606085015160001a611e3c87828585612036565b94509450505050611e79565b8251604003611e715760208301516040840151611e66868383612123565b935093505050611e79565b506000905060025b9250929050565b6000816004811115611e9457611e94612511565b03611e9c5750565b6001816004811115611eb057611eb0612511565b03611efd5760405162461bcd60e51b815260206004820152601860248201527f45434453413a20696e76616c6964207369676e61747572650000000000000000604482015260640161077e565b6002816004811115611f1157611f11612511565b03611f5e5760405162461bcd60e51b815260206004820152601f60248201527f45434453413a20696e76616c6964207369676e6174757265206c656e67746800604482015260640161077e565b6003816004811115611f7257611f72612511565b03611fca5760405162461bcd60e51b815260206004820152602260248201527f45434453413a20696e76616c6964207369676e6174757265202773272076616c604482015261756560f01b606482015260840161077e565b6004816004811115611fde57611fde612511565b03611a905760405162461bcd60e51b815260206004820152602260248201527f45434453413a20696e76616c6964207369676e6174757265202776272076616c604482015261756560f01b606482015260840161077e565b6000807f7fffffffffffffffffffffffffffffff5d576e7357a4501ddfe92f46681b20a083111561206d575060009050600361211a565b8460ff16601b1415801561208557508460ff16601c14155b15612096575060009050600461211a565b6040805160008082526020820180845289905260ff881692820192909252606081018690526080810185905260019060a0016020604051602081039080840390855afa1580156120ea573d6000803e3d6000fd5b5050604051601f1901519150506001600160a01b0381166121135760006001925092505061211a565b9150600090505b94509492505050565b6000806001600160ff1b03831660ff84901c601b0161214487828885612036565b935093505050935093915050565b6040518060c001604052806000815260200160006001600160a01b031681526020016060815260200160608152602001606081526020016000600381111561219c5761219c612511565b905290565b634e487b7160e01b600052604160045260246000fd5b600082601f8301126121c857600080fd5b813567ffffffffffffffff808211156121e3576121e36121a1565b604051601f8301601f19908116603f0116810190828211818310171561220b5761220b6121a1565b8160405283815286602085880101111561222457600080fd5b836020870160208301376000602085830101528094505050505092915050565b6000806040838503121561225757600080fd5b823567ffffffffffffffff8082111561226f57600080fd5b61227b868387016121b7565b9350602085013591508082111561229157600080fd5b5061229e858286016121b7565b9150509250929050565b6000602082840312156122ba57600080fd5b5035919050565b6000602082840312156122d357600080fd5b813567ffffffffffffffff8111156122ea57600080fd5b6122f6848285016121b7565b949350505050565b60005b83811015612319578181015183820152602001612301565b50506000910152565b6000815180845261233a8160208601602086016122fe565b601f01601f19169290920160200192915050565b6020815260006123616020830184612322565b9392505050565b6001600160a01b0381168114611a9057600080fd5b803561238881612368565b919050565b60006020828403121561239f57600080fd5b813561236181612368565b6000806000606084860312156123bf57600080fd5b83356123ca81612368565b9250602084013567ffffffffffffffff8111156123e657600080fd5b6123f2868287016121b7565b925050604084013561240381612368565b809150509250925092565b600080600080600080600060e0888a03121561242957600080fd5b87359650602088013595506124406040890161237d565b9450606088013567ffffffffffffffff8082111561245d57600080fd5b6124698b838c016121b7565b955060808a013591508082111561247f57600080fd5b61248b8b838c016121b7565b945060a08a01359150808211156124a157600080fd5b6124ad8b838c016121b7565b935060c08a01359150808211156124c357600080fd5b506124d08a828b016121b7565b91505092959891949750929550565b6020815260008251604060208401526124fb6060840182612322565b9050602084015160408401528091505092915050565b634e487b7160e01b600052602160045260246000fd5b602081528151602082015260018060a01b0360208301511660408201526000604083015160c0606084015261255f60e0840182612322565b90506060840151601f198085840301608086015261257d8383612322565b925060808601519150808584030160a08601525061259b8282612322565b91505060a0840151600481106125c157634e487b7160e01b600052602160045260246000fd5b60c0939093019290925250919050565b60006bffffffffffffffffffffffff19808660601b16835284516125fc8160148601602089016122fe565b60609490941b169190920160148101919091526028019392505050565b600181811c9082168061262d57607f821691505b6020821081036119dd57634e487b7160e01b600052602260045260246000fd5b601f821115611b7a57600081815260208120601f850160051c810160208610156126745750805b601f850160051c820191505b8181101561269357828155600101612680565b505050505050565b815167ffffffffffffffff8111156126b5576126b56121a1565b6126c9816126c38454612619565b8461264d565b602080601f8311600181146126fe57600084156126e65750858301515b600019600386901b1c1916600185901b178555612693565b600085815260208120601f198616915b8281101561272d5788860151825594840194600190910190840161270e565b508582101561274b5787850151600019600388901b60f8161c191681555b5050505050600190811b01905550565b60006020828403121561276d57600080fd5b815161236181612368565b6020808252600c908201526b57524f4e475f53544154555360a01b604082015260600190565b80820180821115611ddc57634e487b7160e01b600052601160045260246000fd5b60006bffffffffffffffffffffffff19808b60601b168352896014840152886034840152808860601b1660548401528651612801816068860160208b016122fe565b865190840190612818816068840160208b016122fe565b865191019061282e816068840160208a016122fe565b808201915050818560601b166068820152607c8101925050509998505050505050505050565b600082516128668184602087016122fe565b9190910192915050565b600084516128828184602089016122fe565b8083019050602f60f81b80825285516128a2816001850160208a016122fe565b600192019182015283516128bd8160028401602088016122fe565b0160020195945050505050565b60008084546128d881612619565b600182811680156128f0576001811461290557612934565b60ff1984168752821515830287019450612934565b8860005260208060002060005b8581101561292b5781548a820152908401908201612912565b50505082870194505b5050505083516129488183602088016122fe565b01949350505050565b60006020828403121561296357600080fd5b5051919050565b60006020828403121561297c57600080fd5b8151801515811461236157600080fd5b6020808252602b908201527f496e697469616c697a61626c653a20636f6e7472616374206973206e6f74206960408201526a6e697469616c697a696e6760a81b60608201526080019056fea26469706673582212203266513f64005bf47053168ff6850b5f4f5c3e8e336736b58ace97a30544021264736f6c63430008110033",
  "devdoc": {
    "kind": "dev",
    "methods": {
      "createTimeTrove(string,bytes)": {
        "details": "TimeTrove"
      },
      "mintTimeToken(uint256,uint256,address,string,string,string,bytes)": {
        "details": "TimeToken"
      },
      "owner()": {
        "details": "Returns the address of the current owner."
      },
      "renounceOwnership()": {
        "details": "Leaves the contract without owner. It will not be possible to call `onlyOwner` functions anymore. Can only be called by the current owner. NOTE: Renouncing ownership will leave the contract without an owner, thereby removing any functionality that is only available to the owner."
      },
      "tokenURI(uint256)": {
        "details": "Render"
      },
      "transferOwnership(address)": {
        "details": "Transfers ownership of the contract to a new account (`newOwner`). Can only be called by the current owner."
      }
    },
    "stateVariables": {
      "_claimedMintKeys": {
        "details": "Key(uint256) mapping to a claimed key. Used to prevent address from rebroadcasting mint transactions"
      }
    },
    "version": 1
  },
  "userdoc": {
    "kind": "user",
    "methods": {},
    "version": 1
  },
  "storageLayout": {
    "storage": [
      {
        "astId": 1409,
        "contract": "hardhat/contracts/MuseTimeController.sol:MuseTimeController",
        "label": "_initialized",
        "offset": 0,
        "slot": "0",
        "type": "t_uint8"
      },
      {
        "astId": 1412,
        "contract": "hardhat/contracts/MuseTimeController.sol:MuseTimeController",
        "label": "_initializing",
        "offset": 1,
        "slot": "0",
        "type": "t_bool"
      },
      {
        "astId": 1896,
        "contract": "hardhat/contracts/MuseTimeController.sol:MuseTimeController",
        "label": "__gap",
        "offset": 0,
        "slot": "1",
        "type": "t_array(t_uint256)50_storage"
      },
      {
        "astId": 1281,
        "contract": "hardhat/contracts/MuseTimeController.sol:MuseTimeController",
        "label": "_owner",
        "offset": 0,
        "slot": "51",
        "type": "t_address"
      },
      {
        "astId": 1401,
        "contract": "hardhat/contracts/MuseTimeController.sol:MuseTimeController",
        "label": "__gap",
        "offset": 0,
        "slot": "52",
        "type": "t_array(t_uint256)49_storage"
      },
      {
        "astId": 183,
        "contract": "hardhat/contracts/MuseTimeController.sol:MuseTimeController",
        "label": "museTimeNFT",
        "offset": 0,
        "slot": "101",
        "type": "t_address"
      },
      {
        "astId": 185,
        "contract": "hardhat/contracts/MuseTimeController.sol:MuseTimeController",
        "label": "paramsSigner",
        "offset": 0,
        "slot": "102",
        "type": "t_address"
      },
      {
        "astId": 187,
        "contract": "hardhat/contracts/MuseTimeController.sol:MuseTimeController",
        "label": "baseURI",
        "offset": 0,
        "slot": "103",
        "type": "t_string_storage"
      },
      {
        "astId": 189,
        "contract": "hardhat/contracts/MuseTimeController.sol:MuseTimeController",
        "label": "mintIndex",
        "offset": 0,
        "slot": "104",
        "type": "t_uint256"
      },
      {
        "astId": 194,
        "contract": "hardhat/contracts/MuseTimeController.sol:MuseTimeController",
        "label": "_claimedMintKeys",
        "offset": 0,
        "slot": "105",
        "type": "t_mapping(t_uint256,t_bool)"
      },
      {
        "astId": 199,
        "contract": "hardhat/contracts/MuseTimeController.sol:MuseTimeController",
        "label": "_timeTroves",
        "offset": 0,
        "slot": "106",
        "type": "t_mapping(t_address,t_struct(TimeTrove)162_storage)"
      },
      {
        "astId": 204,
        "contract": "hardhat/contracts/MuseTimeController.sol:MuseTimeController",
        "label": "_timeTokens",
        "offset": 0,
        "slot": "107",
        "type": "t_mapping(t_uint256,t_struct(TimeToken)181_storage)"
      }
    ],
    "types": {
      "t_address": {
        "encoding": "inplace",
        "label": "address",
        "numberOfBytes": "20"
      },
      "t_array(t_uint256)49_storage": {
        "base": "t_uint256",
        "encoding": "inplace",
        "label": "uint256[49]",
        "numberOfBytes": "1568"
      },
      "t_array(t_uint256)50_storage": {
        "base": "t_uint256",
        "encoding": "inplace",
        "label": "uint256[50]",
        "numberOfBytes": "1600"
      },
      "t_bool": {
        "encoding": "inplace",
        "label": "bool",
        "numberOfBytes": "1"
      },
      "t_enum(TimeTokenStatus)167": {
        "encoding": "inplace",
        "label": "enum MuseTimeController.TimeTokenStatus",
        "numberOfBytes": "1"
      },
      "t_mapping(t_address,t_struct(TimeTrove)162_storage)": {
        "encoding": "mapping",
        "key": "t_address",
        "label": "mapping(address => struct MuseTimeController.TimeTrove)",
        "numberOfBytes": "32",
        "value": "t_struct(TimeTrove)162_storage"
      },
      "t_mapping(t_uint256,t_bool)": {
        "encoding": "mapping",
        "key": "t_uint256",
        "label": "mapping(uint256 => bool)",
        "numberOfBytes": "32",
        "value": "t_bool"
      },
      "t_mapping(t_uint256,t_struct(TimeToken)181_storage)": {
        "encoding": "mapping",
        "key": "t_uint256",
        "label": "mapping(uint256 => struct MuseTimeController.TimeToken)",
        "numberOfBytes": "32",
        "value": "t_struct(TimeToken)181_storage"
      },
      "t_string_storage": {
        "encoding": "bytes",
        "label": "string",
        "numberOfBytes": "32"
      },
      "t_struct(TimeToken)181_storage": {
        "encoding": "inplace",
        "label": "struct MuseTimeController.TimeToken",
        "members": [
          {
            "astId": 169,
            "contract": "hardhat/contracts/MuseTimeController.sol:MuseTimeController",
            "label": "valueInWei",
            "offset": 0,
            "slot": "0",
            "type": "t_uint256"
          },
          {
            "astId": 171,
            "contract": "hardhat/contracts/MuseTimeController.sol:MuseTimeController",
            "label": "topicOwner",
            "offset": 0,
            "slot": "1",
            "type": "t_address"
          },
          {
            "astId": 173,
            "contract": "hardhat/contracts/MuseTimeController.sol:MuseTimeController",
            "label": "topicSlug",
            "offset": 0,
            "slot": "2",
            "type": "t_string_storage"
          },
          {
            "astId": 175,
            "contract": "hardhat/contracts/MuseTimeController.sol:MuseTimeController",
            "label": "profileArId",
            "offset": 0,
            "slot": "3",
            "type": "t_string_storage"
          },
          {
            "astId": 177,
            "contract": "hardhat/contracts/MuseTimeController.sol:MuseTimeController",
            "label": "topicsArId",
            "offset": 0,
            "slot": "4",
            "type": "t_string_storage"
          },
          {
            "astId": 180,
            "contract": "hardhat/contracts/MuseTimeController.sol:MuseTimeController",
            "label": "status",
            "offset": 0,
            "slot": "5",
            "type": "t_enum(TimeTokenStatus)167"
          }
        ],
        "numberOfBytes": "192"
      },
      "t_struct(TimeTrove)162_storage": {
        "encoding": "inplace",
        "label": "struct MuseTimeController.TimeTrove",
        "members": [
          {
            "astId": 159,
            "contract": "hardhat/contracts/MuseTimeController.sol:MuseTimeController",
            "label": "arOwnerAddress",
            "offset": 0,
            "slot": "0",
            "type": "t_string_storage"
          },
          {
            "astId": 161,
            "contract": "hardhat/contracts/MuseTimeController.sol:MuseTimeController",
            "label": "balance",
            "offset": 0,
            "slot": "1",
            "type": "t_uint256"
          }
        ],
        "numberOfBytes": "64"
      },
      "t_uint256": {
        "encoding": "inplace",
        "label": "uint256",
        "numberOfBytes": "32"
      },
      "t_uint8": {
        "encoding": "inplace",
        "label": "uint8",
        "numberOfBytes": "1"
      }
    }
  }
}